{
  "transactions": [
    {
      "hash": "0x0df30e934c4ef99204a05d6b48ad6cc01f1ccb9693b320b37f62d16bb1f89b0f",
      "transactionType": "CALL",
      "contractName": null,
      "contractAddress": "0xa753ae6eb57867945982110e660c00be4f6d5eae",
      "function": "mintNft(string)",
      "arguments": [
        "ipfs://QmRfeyGSuKHgyQ2nqGXnn5wBhFJ6KGj5ShtwHo9Vc4k8yv/SleepEarlyNft.jpg=0-PUG.json"
      ],
      "transaction": {
        "from": "0x588abbd15ea5aa3862cff146eb821bcfd806025b",
        "to": "0xa753ae6eb57867945982110e660c00be4f6d5eae",
        "gas": "0x3db26",
        "value": "0x0",
        "input": "0xda86f4a900000000000000000000000000000000000000000000000000000000000000200000000000000000000000000000000000000000000000000000000000000052697066733a2f2f516d526665794753754b48677951326e7147586e6e35774268464a364b476a3553687477486f395663346b3879762f536c6565704561726c794e66742e6a70673d302d5055472e6a736f6e0000000000000000000000000000",
        "nonce": "0x26",
        "chainId": "0xaa36a7"
      },
      "additionalContracts": [],
      "isFixedGasLimit": false
    }
  ],
  "receipts": [
    {
      "status": "0x1",
      "cumulativeGasUsed": "0x4c14ee",
      "logs": [
        {
          "address": "0xa753ae6eb57867945982110e660c00be4f6d5eae",
          "topics": [
            "0xddf252ad1be2c89b69c2b068fc378daa952ba7f163c4a11628f55a4df523b3ef",
            "0x0000000000000000000000000000000000000000000000000000000000000000",
            "0x000000000000000000000000588abbd15ea5aa3862cff146eb821bcfd806025b",
            "0x0000000000000000000000000000000000000000000000000000000000000000"
          ],
          "data": "0x",
          "blockHash": "0xd89eca80e37240cc9c3c8a90515b3dbfc3baad1e98da0cd9a337f8fdb9054705",
          "blockNumber": "0x89c143",
          "blockTimestamp": "0x68a6372c",
          "transactionHash": "0x0df30e934c4ef99204a05d6b48ad6cc01f1ccb9693b320b37f62d16bb1f89b0f",
          "transactionIndex": "0x31",
          "logIndex": "0x52",
          "removed": false
        }
      ],
      "logsBloom": "0x00000000000000000000000000000000000000000000000000000000000000000000000000000000000000800000000001000000000000000000000000000000000000000000000000000008000000000000000000000000000000000000000000000000020000000000000000000800000000000000000000000010000000000000000000000000000000000000000000000000000000000000000000002000000000000000000000000000000000000000000000000000000000000000000000000002100000800000000000000000000000000000000000000000000020000000000000000000000000000000000000200000000000000000000000000000",
      "type": "0x2",
      "transactionHash": "0x0df30e934c4ef99204a05d6b48ad6cc01f1ccb9693b320b37f62d16bb1f89b0f",
      "transactionIndex": "0x31",
      "blockHash": "0xd89eca80e37240cc9c3c8a90515b3dbfc3baad1e98da0cd9a337f8fdb9054705",
      "blockNumber": "0x89c143",
      "gasUsed": "0x2caaf",
      "effectiveGasPrice": "0x391463",
      "from": "0x588abbd15ea5aa3862cff146eb821bcfd806025b",
      "to": "0xa753ae6eb57867945982110e660c00be4f6d5eae",
      "contractAddress": null
    }
  ],
  "libraries": [],
  "pending": [],
  "returns": {},
  "timestamp": 1755723563842,
  "chain": 11155111,
  "commit": "b6b43b0"
}