{
  "transactions": [
    {
      "hash": "0xd657ca90d9cdeab71c1ce8b5afe8abbdf797dfc5a7d37891d5b7f6c67a634739",
      "transactionType": "CALL",
      "contractName": null,
      "contractAddress": "0xb18d52f44ce3e56de5b89c3d3918a9cb85c7ac5d",
      "function": "mintNft(string)",
      "arguments": [
        "ipfs://QmRfeyGSuKHgyQ2nqGXnn5wBhFJ6KGj5ShtwHo9Vc4k8yv/SleepEarlyNft.jpg.json"
      ],
      "transaction": {
        "from": "0x588abbd15ea5aa3862cff146eb821bcfd806025b",
        "to": "0xb18d52f44ce3e56de5b89c3d3918a9cb85c7ac5d",
        "gas": "0x3dac4",
        "value": "0x0",
        "input": "0xda86f4a90000000000000000000000000000000000000000000000000000000000000020000000000000000000000000000000000000000000000000000000000000004c697066733a2f2f516d526665794753754b48677951326e7147586e6e35774268464a364b476a3553687477486f395663346b3879762f536c6565704561726c794e66742e6a70672e6a736f6e0000000000000000000000000000000000000000",
        "nonce": "0x28",
        "chainId": "0xaa36a7"
      },
      "additionalContracts": [],
      "isFixedGasLimit": false
    }
  ],
  "receipts": [
    {
      "status": "0x1",
      "cumulativeGasUsed": "0xad3453",
      "logs": [
        {
          "address": "0xb18d52f44ce3e56de5b89c3d3918a9cb85c7ac5d",
          "topics": [
            "0xddf252ad1be2c89b69c2b068fc378daa952ba7f163c4a11628f55a4df523b3ef",
            "0x0000000000000000000000000000000000000000000000000000000000000000",
            "0x000000000000000000000000588abbd15ea5aa3862cff146eb821bcfd806025b",
            "0x0000000000000000000000000000000000000000000000000000000000000000"
          ],
          "data": "0x",
          "blockHash": "0x93f54f80390e7ed464d8020d6dc0a5c7dca47aeffef92e68c2a5d500e713a778",
          "blockNumber": "0x89c160",
          "blockTimestamp": "0x68a63894",
          "transactionHash": "0xd657ca90d9cdeab71c1ce8b5afe8abbdf797dfc5a7d37891d5b7f6c67a634739",
          "transactionIndex": "0x2a",
          "logIndex": "0x6c",
          "removed": false
        }
      ],
      "logsBloom": "0x00000000000000000000000000000000000000000000000000000000000000000000000000000000000000000000000001000000000000080000000000000000000000000000000000000008000000000000000000000000000000000000000000000000020000000000000000000800000000000000000000000010000000000000000000000000020000000000000000000000000000000000000001000000000000000000000000000000000000000000000000000000000000000000000000000002100000000000000000000000000000000000000000000000000020000000000000000000000000000000000000200000000000000000000000000000",
      "type": "0x2",
      "transactionHash": "0xd657ca90d9cdeab71c1ce8b5afe8abbdf797dfc5a7d37891d5b7f6c67a634739",
      "transactionIndex": "0x2a",
      "blockHash": "0x93f54f80390e7ed464d8020d6dc0a5c7dca47aeffef92e68c2a5d500e713a778",
      "blockNumber": "0x89c160",
      "gasUsed": "0x2ca67",
      "effectiveGasPrice": "0x2b44b1",
      "from": "0x588abbd15ea5aa3862cff146eb821bcfd806025b",
      "to": "0xb18d52f44ce3e56de5b89c3d3918a9cb85c7ac5d",
      "contractAddress": null
    }
  ],
  "libraries": [],
  "pending": [],
  "returns": {},
  "timestamp": 1755723925648,
  "chain": 11155111,
  "commit": "b6b43b0"
}